:100000000C9453000C947B000C947B000C947B00AC
:100010000C947B000C947B000C947B000C947B0074
:100020000C947B000C947B000C947B000C947B0064
:100030000C947B000C947B000C947B000C947B0054
:100040000C94EA010C947B000C945A020C94340238
:100050000C947B000C947B000C947B000C947B0034
:100060000C947B000C947B0000000000250028000D
:100070002B0000000000240027002A0004040404D0
:100080000404040402020202020203030303030342
:10009000010204081020408001020408102001021F
:1000A00004081020AD0311241FBECFEFD8E0DEBF3F
:1000B000CDBF21E0ACE3B1E001C01D92A43FB20787
:1000C000E1F711E0A0E0B1E0ECE5FCE002C0059052
:1000D0000D92AC33B107D9F710E0C3E5D0E004C00E
:1000E0002197FE010E941104C235D107C9F70E9471
:1000F0008C020C942C060C940000CF93DF9390E0BC
:10010000FC01E057FF4F2491FC01E458FF4F84911C
:10011000882361F190E0880F991FFC01EE58FF4F92
:10012000C591D491FC01E859FF4FA591B49161119B
:1001300009C09FB7F8948881209582238883EC9129
:100140002E230BC0623061F49FB7F8943881822F60
:10015000809583238883EC912E2B2C939FBF06C020
:100160008FB7F894E8812E2B28838FBFDF91CF9132
:1001700008953FB7F8948091EC019091ED01A09122
:10018000EE01B091EF0126B5A89B05C02F3F19F0F5
:100190000196A11DB11D3FBFBA2FA92F982F882707
:1001A000820F911DA11DB11DBC01CD0142E0660F62
:1001B000771F881F991F4A95D1F70895CF92DF9234
:1001C000EF92FF920F931F93CF93DF936C017A010D
:1001D0008B01C0E0D0E0CE15DF0589F0D8016D912C
:1001E0008D01D601ED91FC910190F081E02DC601C9
:1001F0000995892B11F47E0102C02196ECCFC7012D
:10020000DF91CF911F910F91FF90EF90DF90CF90F2
:100210000895089580E090E00895FC01538D448D89
:10022000252F30E0842F90E0821B930B541710F0A1
:10023000CF96089501970895FC01918D828D9817AE
:1002400061F0828DDF01A80FB11D5D968C91928DBA
:100250009F5F9F73928F90E008958FEF9FEF0895B7
:10026000FC01918D828D981731F0828DE80FF11D80
:10027000858D90E008958FEF9FEF0895FC01918D9B
:10028000228D892F90E0805C9F4F821B91098F7394
:10029000992708958AE491E00E943E0121E0892B8C
:1002A00009F420E0822F0895FC01848DDF01A80F5E
:1002B000B11DA35ABF4F2C91848D90E001968F738E
:1002C0009927848FA689B7892C93A089B1898C91AD
:1002D00080648C93938D848D981306C00288F38973
:1002E000E02D80818F7D80830895EF92FF920F93A0
:1002F0001F93CF93DF93EC0181E0888F9B8D8C8DD2
:10030000981305C0E889F989808185FD24C0F62EFF
:100310000B8D10E00F5F1F4F0F731127E02E8C8D98
:10032000E8120CC00FB607FCFACFE889F989808182
:1003300085FFF5CFCE010E945401F1CF8B8DFE01D8
:10034000E80FF11DE35AFF4FF0820B8FEA89FB891A
:100350008081806207C0EE89FF896083E889F9891E
:1003600080818064808381E090E0DF91CF911F9154
:100370000F91FF90EF900895CF93DF93EC01888D5C
:100380008823C9F0EA89FB89808185FD05C0A88999
:10039000B9898C9186FD0FC00FB607FCF5CF80811F
:1003A00085FFF2CFA889B9898C9185FFEDCFCE0169
:1003B0000E945401E7CFDF91CF91089580E090E053
:1003C000892B29F00E944A0181110C9400000895A4
:1003D0000E940E061F920F920FB60F9211242F93B8
:1003E0003F938F939F93AF93BF938091E801909138
:1003F000E901A091EA01B091EB013091E70123E01E
:10040000230F2D3720F40196A11DB11D05C026E84C
:10041000230F0296A11DB11D2093E7018093E801EF
:100420009093E901A093EA01B093EB018091EC0174
:100430009091ED01A091EE01B091EF010196A11D07
:10044000B11D8093EC019093ED01A093EE01B09368
:10045000EF01BF91AF919F918F913F912F910F909D
:100460000FBE0F901F9018951F920F920FB60F920C
:1004700011242F933F934F935F936F937F938F93A9
:100480009F93AF93BF93EF93FF938AE491E00E9411
:100490005401FF91EF91BF91AF919F918F917F9107
:1004A0006F915F914F913F912F910F900FBE0F90E1
:1004B0001F9018951F920F920FB60F9211242F9331
:1004C0008F939F93EF93FF93E0915A01F0915B011B
:1004D0008081E0916001F091610182FD12C0908104
:1004E000809163018F5F8F7320916401821751F0B7
:1004F000E0916301F0E0E65BFE4F958F809363012E
:1005000001C08081FF91EF919F918F912F910F906A
:100510000FBE0F901F901895789484B5826084BDAB
:1005200084B5816084BD85B5826085BD85B58160F7
:1005300085BD80916E00816080936E001092810075
:100540008091810082608093810080918100816030
:1005500080938100809180008160809380008091F1
:10056000B10084608093B1008091B000816080937D
:10057000B00080917A00846080937A0080917A0044
:10058000826080937A0080917A00816080937A0003
:1005900080917A00806880937A001092C1008CE389
:1005A00091E09093490180934801E0915A01F091C4
:1005B0005B0182E08083E0915601F0915701108247
:1005C000E0915801F091590180E18083109262011D
:1005D000E0915E01F0915F0186E08083E0915C0133
:1005E000F0915D01808180618083E0915C01F091F8
:1005F0005D01808188608083E0915C01F0915D0104
:10060000808180688083E0915C01F0915D01808150
:100610008F7D808360E082E00E947D0060E083E067
:100620000E947D009CE3A92E91E0B92E85018AE409
:1006300091E00E943E01892B09F48CC08AE491E08C
:100640000E941C018B3309F075C0E0914801F091C4
:10065000490110821093490100934801F50101906E
:100660000020E9F73197CF018C5391407C01BC0108
:100670006F5F7F4F80E090E00E944405EC0100979F
:1006800039F118826CE371E00E942506EF2801F130
:1006900068E171E0CE010E941C06892BA9F063E29B
:1006A00071E0CE010E941C06892B19F461E082E002
:1006B0000DC06FE271E0CE010E941C06892B41F44F
:1006C00061E082E00E947D0061E083E00E947D00A5
:1006D0000E94B9002B013C0182E3C82ED12CE12CF1
:1006E000F12C0E94B900DC01CB0184199509A609FF
:1006F000B709883E9340A105B10558F091E0C91AA9
:10070000D108E108F10828EE420E23E0521E611CD8
:10071000711CC114D104E104F10419F760E082E016
:100720000E947D0060E083E00E947D00CE010E9477
:10073000AC047DCF843221F4109349010093480129
:10074000E0914801F09149018193F0934901E093D0
:1007500048016DCF0E94DE016ACFEAE4F1E0138226
:10076000128288EE93E0A0E0B0E084839583A683B4
:10077000B7838AE091E09183808385EC90E0958750
:10078000848784EC90E09787868780EC90E0918B5B
:10079000808B81EC90E0938B828B82EC90E0958B48
:1007A000848B86EC90E0978B868B118E128E138E45
:1007B000148E08952F923F924F925F926F927F9284
:1007C0008F929F92AF92BF92CF92DF92EF92FF9261
:1007D0000F931F93CF93DF93CDB7DEB7CA1BDB0B0D
:1007E0000FB6F894DEBF0FBECDBF09942A883988B2
:1007F00048885F846E847D848C849B84AA84B984B9
:10080000C884DF80EE80FD800C811B81AA81B981C4
:10081000CE0FD11D0FB6F894DEBF0FBECDBFED01D8
:100820000895EE0FFF1F0590F491E02D0994CF93EA
:10083000DF938230910510F482E090E0E091F201C4
:10084000F091F30120E030E0C0E0D0E0309711F10A
:100850004081518148175907C0F04817590761F482
:1008600082819381209719F09B838A832BC0909378
:10087000F3018093F20126C02115310519F04217CA
:10088000530718F49A01BE01DF01EF010280F381E2
:10089000E02DDCCF2115310509F1281B390B24305F
:1008A000310590F412968D919C9113976115710505
:1008B00021F0FB019383828304C09093F301809322
:1008C000F201FD01329644C0FD01E20FF31F819356
:1008D0009193225031092D933C933AC02091F0011D
:1008E0003091F101232B41F4209102013091030159
:1008F0003093F1012093F00120910001309101012A
:100900002115310541F42DB73EB7409104015091B6
:100910000501241B350BE091F001F091F101E21784
:10092000F307A0F42E1B3F0B2817390778F0AC0112
:100930004E5F5F4F2417350748F04E0F5F1F5093EF
:10094000F1014093F0018193919302C0E0E0F0E067
:10095000CF01DF91CF9108950F931F93CF93DF9332
:10096000009709F48CC0FC01329713821282009127
:10097000F2011091F3010115110581F420813181FB
:10098000820F931F2091F0013091F1012817390750
:1009900079F5F093F101E093F00171C0D80140E0E6
:1009A00050E0AE17BF0750F412962D913C9113976B
:1009B000AD012115310509F1D901F3CF9D01DA010E
:1009C0003383228360817181860F971F821793077B
:1009D00069F4EC0128813981260F371F2E5F3F4FC4
:1009E000318320838A819B8193838283452B29F4E1
:1009F000F093F301E093F20142C01396FC93EE935F
:100A00001297ED01499159919E01240F351FE2176C
:100A1000F30771F480819181840F951F02961196DE
:100A20009C938E938281938113969C938E931297BD
:100A3000E0E0F0E0D80112968D919C911397009719
:100A400019F0F8018C01F6CF8D919C9198012E5FE1
:100A50003F4F820F931F2091F0013091F101281731
:100A6000390769F4309729F41092F3011092F201DA
:100A700002C0138212821093F1010093F001DF9102
:100A8000CF911F910F910895A0E0B0E0EAE4F5E066
:100A90000C94DE03EC01009721F4CB010E941704B3
:100AA000B8C0FC01E60FF71F9C0122503109E21784
:100AB000F30708F4ACC0D9010D911C9111970617EA
:100AC0001707B0F00530110508F49FC0C80104975E
:100AD0008617970708F499C002501109061B170BD7
:100AE000019311936D937C93CF010E94AC048DC050
:100AF0005B01A01AB10A4C01800E911EA091F20177
:100B0000B091F30140E050E0E12CF12C109709F492
:100B10004AC0A815B905D1F56D907C901197630175
:100B200082E0C80ED11CCA14DB0480F1A3014A196B
:100B30005B096A0182E0C80ED11C1296BC90129724
:100B40001396AC91B5E0CB16D10440F0B282A383EA
:100B500051834083D9016D937C930AC00E5F1F4F70
:100B6000C301800F911FF90191838083EB2DFA2F30
:100B7000E114F10431F0D7011396FC93EE93129730
:100B800044C0F093F301E093F2013FC08D919C913A
:100B900011974817590708F4AC017D0112960D9082
:100BA000BC91A02DB3CF8091F0019091F1018815F7
:100BB0009905E1F446175707C8F480910001909118
:100BC0000101009741F48DB79EB740910401509107
:100BD0000501841B950BE817F907C8F4F093F101A0
:100BE000E093F001F901718360830FC0CB010E9493
:100BF00017047C01009759F0A801BE010E9413065A
:100C0000CE010E94AC04C70104C0CE0102C080E046
:100C100090E0CDB7DEB7EEE00C94FA0381E090E00F
:100C2000F8940C942C06FB01DC0102C001900D929B
:100C300041505040D8F70895FB01DC018D9101909F
:100C400080190110D9F3990B0895FB01DC01019083
:0C0C50000D920020E1F70895F894FFCF0A
:100C5C000000F4018000000000007501DE000D01B1
:100C6C00BC013E011C01300124646F3A2072657393
:100C7C0065740024646F3A20746F67676C65002498
:0C0C8C00646F3A20726573746F6700009B
:00000001FF
